:06000000000080311C2805
:10000800803120007F08F30011080139F200210037
:10001800110801397205031918288E3157268031C5
:10002800933142232000111073082000FF000900BB
:1000380080311E28F601F701F801F901A03084008B
:1000480000308500373092312422803120308400FE
:100058000130850021309231242280319F30840084
:1000680092308500E4308600003087000C309231F1
:100078001E228031EC3084008030850041308600BB
:1000880001308700143092311E2220009531882DCE
:100098002200D500550A86008701811E0800D8284D
:1000A800550886008701F83081050800210062089C
:1000B8000319712822005508860087010108F839BC
:1000C8000138810002302100E30063082000EE00BF
:1000D800220055089531422508002000EE01EE0A5D
:1000E80022005508953142250800210062080319AD
:1000F800902822005508860087010108F83902383F
:10010800810004302100E30063082000EE00220093
:1001180055089531422508002200550886008701B8
:10012800F83081050800210062080319B028220070
:10013800550A86008701011EA52855088A31FB2229
:10014800080004302100E30063082000EE002200CC
:100158005508953142250800220055089331982307
:100168008031220055088600870101080739043AC2
:10017800031DC6285508860087010108F839033889
:10018800810008005508860087010108F8390338FE
:10019800810008302100E30063082000EE002200FF
:1001A8005508953142250800220055088600870128
:1001B80001080739003A03195A28013A031979281E
:1001C800033A03199728063A031997285428080070
:1001D800CA348634CF348634AC348634BB3486345F
:1001E800C0348634C5348634B1348634A734863472
:1001F800D4348634D93486348131820702298D314A
:10020800702D9631432E8E31D12E8131172995319B
:10021800652D8331D52B8431D62C8C31C52C8F316B
:100228004B2F8531FE2D2000690886008701010CBF
:10023800EB00EB0C6B0C1F39EC006C082100DB00A9
:10024800B401B50178080F39003A0319C3297808B1
:100258000F39033A03190800923112228131210023
:10026800DB08031D502976082000E0007708E1002C
:10027800E201E30121003B082000EB006B08E400E9
:10028800E501E50A8931772120006108F701F707C0
:100298006008F601F607080021005B08013A031D13
:1002A800582993310723080021005B08023A031DEF
:1002B80008007908033A031D70292200210821004B
:1002C800D801D807220020082100D701D7073630E7
:1002D800D9000130DA009B297908043A031D8329E3
:1002E8006430D7000030D800220021082100DA014C
:1002F800DA07220020082100D901D9079B294E30AE
:10030800F4008630F50097319D278131003A0319B2
:1003180098298B31DB238131003A03199829F03071
:10032800F8052100541608009231382208002100EF
:1003380058082000A101A107210057082000A001AA
:10034800A00721005A082000A301A307210059088B
:100358002000A201A20795311F258131003A031917
:10036800C0298B31DB238131003A0319C029F030D1
:10037800F80521005416080092313822080021009F
:10038800DB08031DCB2906309231C5220800210065
:100398005B08023A031D562AEF302000EB006B0879
:1003A8002100D4054B2A220021082000A101A10721
:1003B800220020082000A001A0070330EB006B08F2
:1003C800A2009231D2220800220023082000A101B5
:1003D800A107220022082000A001A007A201A20A6A
:1003E8009231D2220800220024082000EB00EC0100
:1003F8006B08A0006C08A1000230ED006D08A20097
:100408009231D2220800220028082000A101A10769
:10041800220027082000A001A0070330EB006B088A
:10042800A2009231D222080022002A082000A1014D
:10043800A107220029082000A001A0070330EB0033
:100448006B08A2009231D222080022003008200056
:10045800A101A10722002F082000A001A007023057
:10046800EB006B08A2009231D22208002200260875
:100478002000A101A107220025082000A001A00753
:100488000430EB006B08A2009231D22208007908F0
:1004980084000730040203180800903104350E3E2A
:1004A8008200080021005B08013A031D08002000B3
:1004B8006A08113A031D662AF4302100AE000130A3
:1004C800AF00080020006A08103A031D712A923113
:1004D8006222813194312B240800923162228131C9
:1004E8009431622408002000BB002E30B000300890
:1004F800B40020002D08B1002C08B0000130AC0772
:100508000318AD0A30088400310885000008B200DD
:100518003208BE00BE080319CF2B3E08253A03193E
:10052800A12A3E08B0003B088600870130088100F8
:100538000130B0003008BB077D2ABC01BD01B50100
:10054800AA2A35150130AC070030AD3D2C088400CF
:100558002D0885000008303A0319A52AB32A2C086B
:1005680084002D0885000008933115238231031C6F
:10057800F92A2000BC01BD010A302000A00000308B
:10058800A1003D08A301A3073C08A201A2079431DA
:100598009D24823120002108BD01BD072008BC012F
:1005A800BC072C0884002D0885000008D03EB00048
:1005B800FF3003180030B1003008BC073108BD3DDA
:1005C8000130AC070030AD3D2C0884002D088500B3
:1005D8000008933115238231031CF92AC02AC03040
:1005E8002000B0003008B5040F2B20002D08B10002
:1005F8002C08B0000130AC070318AD0A300884009D
:10060800310885000008BE00003A0319CF2B753A5F
:100618000319F32A7D2A340886008701403FB60073
:10062800413FB7000230B0003008B407BE01BE0A2F
:100638003E08053A03193F2B3E08B000B101B0351A
:10064800B10D3C30300784008630313D8500003FD5
:10065800B200013FB30033083702031D352B3208BF
:100668003602031C3F2B0130B0003008BE073E089D
:10067800053A031D202B3E08B000B101B01BB103A1
:100688003108803AB2003D08803A3202031D4E2BF1
:100698003C08300203185B2B20003E08B000B10173
:1006A800B01BB1033008BC023108BD3B5E2B2000F3
:1006B800BC01BD01351D742B3D083C0403198B2B6F
:1006C8003030B0003B0886008701300881000130D7
:1006D800B0003008BB07FF30BC07FF30BD3D602BC2
:1006E8003D083C0403198B2B2030B0003B088600E2
:1006F8008701300881000130B0003008BB07FF30A7
:10070800BC07FF30BD3D3D083C04031D782B3E0867
:10071800B0003008BA00FF30B0003008BA073A0815
:10072800FF3A03197D2A0A30A7000030A8003A08CA
:10073800B000B101B035B10D3C30300784008630CF
:10074800313D8500003FA000013FA1003708A3010B
:10075800A3073608A201A20788319320823120001E
:100768002108AA01AA072008A901A90797313E274D
:10077800823120002708303EB2003208BE003E0811
:10078800B0003B0886008701300881000130B000C6
:100798003008BB078F2B20003B08860087018101AA
:1007A800080078080F390038031DF62B4130860001
:1007B8000130870041308400003085001430FF008C
:1007C80016001A00FF0BE42B7935413E860087019D
:1007D800403F2000A000413FA100A201A20A8A31A7
:1007E8003022080078080F39013A0319B82CCC2CAC
:1007F80097302000AC008630AD007708AF01AF0716
:100808007608AE01AE075530823177228331F40184
:10081800F40A55309331D2238331C22C8230200020
:10082800AC008630AD007708AF01AF077608AE019F
:10083800AE07553082317722833103302000BF0064
:100848003F08F40055309331D2238331C22C8A30CB
:100858002000AC008630AD007708AF01AF077608FE
:10086800AE01AE0755308231772283310230200045
:10087800BF003F08F40055309331D22383312E3026
:100888002000BF003F08A6000330C0004008A700B2
:1008980055308831CA208331C22C97302000AC00F3
:1008A8008630AD007708AF01AF077608AE01AE0716
:1008B8005530823177228331F401F40A553093316F
:1008C800D2238331C22C97302000AC008630AD0093
:1008D8007708AF01AF077608AE01AE075530823111
:1008E80077228331F401F40A55309331D2238331CE
:1008F800C22C8A302000AC008630AD007708AF01EA
:10090800AF077608AE01AE075530823177228331C2
:1009180002302000BF003F08F40055309331D22345
:1009280083312E302000BF003F08A6000330C000EE
:100938004008A70055308831CA208331C22CDE30E8
:100948002000AC008630AD007708AF01AF0776080D
:10095800AE01AE075530823177228331F40155302C
:100968009331D2238331C22C7908840007300402E2
:100978000318C22C90310435003E82005530200007
:10098800A0000030A100A201A20A8A31302208008A
:1009980091302000A0008630A100A201A20A8A316D
:1009A800302208002000690886008701010CEB004E
:1009B800EB0C6B0C1F39EC006C08ED002100B40146
:1009C800B50178080F39003A03194C2D78080F390A
:1009D800033A0319080078080F39013A031D0B2D53
:1009E80020006D08013A031DFF2CF030F8052100A6
:1009F800CA01CA0A080077082100B101B1077608C0
:100A0800B001B0077808F0390238F80008009231D0
:100A1800122284312000ED08031D2A2D7608E000FB
:100A28007708E100E201E30121003B082000EB0028
:100A38006B08E400E501E50A8931772120006108A7
:100A4800F701F7076008F601F60708006D08013A94
:100A5800031D312D93310723080020006D08023A49
:100A6800031D08006E30F4008630F50097319D278D
:100A78008431003A0319492D9431DB248431003A3A
:100A88000319492DF030F805080092313822080082
:100A98002000ED08031D542D04309231C5220800B2
:100AA80020006D08023A0319AF2DBA2D2100230842
:100AB8002000A101A107210022082000A001A00711
:100AC8000330EB006B08A2009231D222080021000B
:100AD80021082000A101A107210020082000A00171
:100AE800A0070430EB006B08A2009231D222080064
:100AF800210029082000A101A107210028082000C1
:100B0800A001A0070330EB006B08A2009231D222AB
:100B18000800210025082000A101A10721002408C0
:100B28002000A001A0070330EB006B08A20092315F
:100B3800D2220800210029082000A101A1072100D4
:100B480028082000A001A0070330EB006B08A200D2
:100B58009231D22208007908840005300402031873
:100B68000800903104353E3E8200080020006D08E0
:100B7800013A031D08009231DF2284319431462462
:100B8800080077082000BA01BA077608B901B90742
:100B9800210031082000BC01BC07210030082000DA
:100BA800BB01BB07220040082000BE01BE0722008F
:100BB8003F082000BD01BD078D31172520003A08E8
:100BC800C401C4073908C301C30744082200BE0191
:100BD800BE07200043082200BD01BD0720004408CD
:100BE8002200C001C007200043082200BF01BF0740
:060BF800013008000800B6
:100C00000034FF34FF34FF34FF34FF34FF34FF344B
:100C1000FF34FF34FF34FF34FF34FF34EF34FF344C
:100C2000FF349034D734A2348334C53489348834C3
:100C3000D33480348134FF34FF34FF34FF34FF3445
:100C4000FF34FF34C0348C34AE348634A834E834F6
:100C50009834C434DF349634EC34BC34CA34CE34E3
:100C60008E34E0349134EE34CD34AC3494349E344C
:100C7000A534AB348534E634013400340A3400340E
:100C800064340034E834033410342734FB34F7344C
:100C9000DF34BF34FE34FD34EF347F346434003449
:100CA0002C3401340134003409340034003400346D
:100CB0006334003400340034363401346434003496
:100CC0000034003400340034633400340034003421
:100CD000FF34FF34003400340F3427340034003440
:100CE00096340034323400340F34273496340034D0
:100CF00018340134963400341834013496340034F6
:100D00001834013420342034203425343034313444
:100D10007534003420342034253430343234753482
:100D200000344534523452342E34203400342034CC
:100D3000253430343334753400344934203420348D
:100D400020340034493430342034203400344F34DB
:100D50004334203420340034543444342034203498
:100D6000003443345434203420340034493456346D
:100D70002034203400344F345634203420340034AE
:100D800055345634203420340034543454344434EC
:100D90002034003456344F344C342034003447343B
:100DA00041345034203400345434523420345434D8
:100DB0000034433453342034543400342534303434
:100DC000343475340034253434347534003494317B
:100DD000BB24863175082100A301A3077408A20172
:100DE000A20722082000C100210023082000C20021
:100DF000C301C40122003B082000B90022003C08C6
:100E00002000BA00BB01BC01220026082000BE0160
:100E1000BE07220025082000BD01BD070230BF002B
:100E20000030C00044083C02031D202F43083B0251
:100E3000031D202F42083A02031D202F41083902CA
:100E400003182B2F3908C1023A08C23B3B08C33BA9
:100E50003C08C43B332F0030C4000030C3000030D6
:100E6000C2000030C10000303E02653003193D026F
:100E700003184E2F0A30A0000030A1004008A30143
:100E8000A3073F08A201A20794319D2486312000C8
:100E90002108C001C0072008BF01BF073D08A0000E
:100EA0003E08A100A201A3014408A7004308A60030
:100EB0004208A5004108A40097316D278631200023
:100EC0002308C4002208C3002108C2002008C10072
:100ED0003F08A0004008A100A201A3014408A70008
:100EE0004308A6004208A5004108A40097316D27D9
:100EF000863120002308C4002208C3002108C20054
:100F00002008C100220037082000AC002200380869
:100F10002000AD00AE01AF014408B3004308B200A9
:100F20004208B1004108B0008731A92720002F08EE
:100F3000C4002E08C3002D08C2002C08C1004208BE
:100F40002100A101A107200041082100A001A00764
:100F5000080000302000B7000030B6000030B500B7
:100F60000030B4002F082E042D042C040319F32F95
:100F7000B801B80AAF1BC82F0130AC35AD0DAE0DAE
:100F8000AF0D890BBD2F0130F4007408B807BA2FDC
:100F90000130B435B50DB60DB70D890BC92F2F082B
:100FA0003302031DDD2F2E083202031DDD2F2D0815
:100FB0003102031DDD2F2C083002031CE82F2C0802
:100FC000B0022D08B13B2E08B23B2F08B33B3414BE
:100FD0000130AF36AE0CAD0CAC0C890BE92F0130F3
:100FE000B802031DC82F3708AF003608AE00350819
:100FF000AD003408AC0008002100C301C2010800A4
:101000002000A0000B08C039F4007408A1003F3094
:10101000F40074088B052008803EA2001F300318DE
:101020002030A30022082300910020002308230081
:10103000920015131516151555309600AA30960016
:101040009514000000002300151120002108F40071
:1010500074088B04080045282100CC108731FC2738
:10106000883121004C153B282100CC144C118731CC
:10107000FC27883121004C1450282100CC144C1539
:101080004C108731FC27883150287908003A031921
:101090002C28013A03193428033A03193D282C2837
:1010A00022002D080319592821003E143E15BE14B4
:1010B000080021003E103E11BE1008002000230849
:1010C0002102031D6528220820020030031C013084
:1010D000F40074082100BA003A080319812820009E
:1010E0002009F4002109F500F40A0319F50A220881
:1010F00074072100AC0020002308753D2100AD00DD
:10110000080020002209F4002309F500F40A03195D
:10111000F50A200874072100AC0020002108753D65
:101120002100AD0008002000A501A601210820042F
:101130000319C328A401A40AA11BA8280130A035C3
:10114000A10D890B9F280130F4007408A4079C2886
:101150000130A535A60D890BA92821082302031DFE
:10116000B32820082202031CBA282008A202210862
:10117000A33B25140130A136A00C890BBB280130FC
:10118000A402031DA8282608A101A1072508A00183
:10119000A00708002000AD002D089531D125883129
:1011A00074082000A8007508A900280AAA002A08C7
:1011B000AC002C0827020318FA2827082D07A800DE
:1011C0002808860087010108A9002908AB00260825
:1011D000A80027082D07A9002908860087012808EC
:1011E00081002B08A8002808A6000130A8002808C4
:1011F000A707D9282C082D07A800280886008701F2
:10120000810108009231062289310A3021003F0213
:10121000031C3429220021082000A101A10722007B
:1012200020082000A001A007210029082000A30118
:10123000A307210028082000A201A20788315E2010
:101240008931220023082000A101A10722002208E1
:101250002000A001A0079531F62589319331BE23E6
:10126000893193316423080001302000C50045080E
:101270002100BF0708002000BF013D083F020318FE
:1012800062290030AF000030AE000030AD000A30FF
:10129000AC003C08B3003B08B2003A08B100390882
:1012A000B0008731A927893120002F08BC002E0803
:1012B000BB002D08BA002C08B9000130BE003E0862
:1012C000BF073D290030A3000030A2000030A1007C
:1012D0000A30A0003C08A7003B08A6003A08A50079
:1012E0003908A4008A31712220002008080020005B
:1012F0006308BC006208BB006108BA006008B9005E
:101300006408E6006608BD0089313B218931200070
:10131000E7006708E80009306802031894290130E3
:10132000E6006608E8079829650803199829E80186
:101330006308D1006208D0006108CF006008CE00C9
:101340006408E6006608D2006808E7006708D30072
:101350008C31282420005108E3005008E2004F0897
:10136000E1004E08E00008002000A0000830200244
:101370000318C7290130F400200ABF29F435890B6E
:10138000BE297408F500750823008C0408002000AD
:101390002008083A031DCF2923000D15080020005E
:1013A0002008093A031DD72923008D1508002000C5
:1013B00020080A3A031DDF2923008D1408002000AD
:1013C00020080B3A031DE72923000D160800200012
:1013D00020080C3A031DEF2923000D1408002300F8
:1013E0008D1608002000C8004008C400C501C601D1
:1013F000C7014708CD004608CC004508CB0044088B
:10140000CA00C901480849020318272A0030A3006E
:101410000030A2000030A1000A30A0004D08A70053
:101420004C08A6004B08A5004A08A40097316D2778
:10143000893120002308CD002208CC002108CB00F0
:101440002008CA000130C4004408C907022A4D0818
:10145000C3004C08C2004B08C1004A08C000080085
:101460002000572A75082E3A031D3A2AF41301303A
:10147000A2024B2A7508E03EA300FF30031800309B
:10148000A4000130230784008630243D8500000835
:10149000A5002508F4007408A3002208CC3E8600AD
:1014A0008701230881000130A3002308A207200838
:1014B0008400210885000008A3002308F5000130FE
:1014C000A0070030A13D0530220203186A2AF50862
:1014D000031D322A75082E3A031D08002100D0137F
:1014E0000800200023082204210420040319AB2A49
:1014F000F501F50AA31B882A0130A035A10DA20D24
:10150000A30D890B7D2A0130F4007408F5077A2AAF
:1015100023082702031D962A22082602031D962A65
:1015200021082502031D962A20082402031CA02A54
:101530002008A4022108A53B2208A63B2308A73BBC
:101540000130A336A20CA10CA00C890BA12A0130FA
:10155000F502031D882A2708A3002608A2002508F3
:10156000A1002408A00008009331E6238A319331BA
:1015700053238A3121008D170E168E15003020005E
:10158000A0000030A1000230A2000030A300D33040
:1015900094317F248A312100530807390838D30059
:1015A000D415D41600302000A0000030A100023075
:1015B000A2000030A300D53094317F248A31073057
:1015C0002100D505D615D61600302000A000003029
:1015D000A1000230A2000030A300D13094317F245A
:1015E0008A312100510807391038D100D215D2169E
:1015F0009431622408002100E1006108860087011F
:10160000010CDE00DE0C5E0C1F39DF005F08E0001D
:1016100060086F02031C08006F086006031D332B6F
:101620002F082E04031D2E2B610886008701010858
:101630000739043A03192E2B1030DE005E08200013
:10164000EE002100610895314225210061088600E5
:1016500087010108F8390438810008000130AE0222
:101660000030AF3B08006008DE005E08EF00AE010E
:10167000AF011130DE005E082000EE00210061089D
:101680009531422508000930973112278B317508B2
:101690002100A701A7077408A601A60722003D089C
:1016A0002000AC0022003E082000AD00AE01AF01DA
:1016B000210026082000A000210027082000A1000A
:1016C000A201A3010030A7000030A6000030A50051
:1016D0006430A40097316D278B3120002308B300BC
:1016E0002208B2002108B1002008B0008731A927E4
:1016F0008B3120002D082100A501A50720002C0812
:101700002100A401A407013025025F30031924023F
:10171000031C08005E30A4000130A50008000A3058
:10172000973112278B3175082100AB01AB07740884
:10173000AA01AA0722003F082000AC0022004008AE
:101740002000AD00AE01AF0121002A082000A0005A
:1017500021002B082000A100A201A3010030A70056
:101760000030A6000030A5006430A40097316D273A
:101770008B3120002308B3002208B2002108B100F9
:101780002008B0008731A9278B3120002D082100C7
:10179000A901A90720002C082100A801A8070130F1
:1017A00029025F3003192802031C08005E30A800DC
:1017B0000130A90008001C2C77082200A101A10714
:1017C0007608A001A007262C7608F400F50174081D
:1017D0002200A2007508A300262C7608F4007408E5
:1017E0002200A400262C77082200A801A80776086A
:1017F000A701A707262C77082200AA01AA077608C6
:10180000A901A907262C7608F400F5017408220026
:10181000AF007508B000262C923118228B310038A9
:10182000031D142C0030080077082200A601A6072B
:101830007608A501A507262C790884000730040244
:101840000318262C903104351C3E8200013008001C
:1018500020005108BC005008BB004F08BA004E08D9
:10186000B9005208D4005408BD0089313B218C31A5
:101870002000D5005508C00052088931F2218C3172
:1018800020004308DB004208DA004108D900400884
:10189000D8005308D4005408C00052088931F221FE
:1018A00020004308DF004208DE004108DD00400858
:1018B000DC005808CE025908CF3B5A08D03B5B08E1
:1018C000D13B4E085C07D4004F085D3DD500500861
:1018D0005E3DD60051085F3DD7005708D10056083D
:1018E000D0005508CF005408CE0008002000A10009
:1018F0002108803EA4001F3003182030A5000B08EB
:10190000C039A0002008A200250823009200200072
:10191000240823009100151315159516750820004D
:10192000A0002008A30020002308860087010108EA
:101930002300930001302000A0002008A307FF30FF
:101940002300940011081F3A1F390319B52C553094
:101950009600AA3096009514000000000130200087
:10196000A000200823009107932C95125530960073
:10197000AA309600951400000000230015112000E5
:101980002208A00020088B0408000B30210035023B
:10199000B83003193402031CD32C9231DF228C316E
:1019A000943162248C3101302100B4070030B53D00
:1019B00078080F39003A0319080078080F39033AFC
:1019C000031DE52C93313223080078080F39013AC2
:1019D0000319062D142D21002308F701F70722080B
:1019E000032D21002108F701F7072008032DFE2C05
:1019F00021002508F701F7072408032D21002908F5
:101A0000F701F7072808F601F607102D790884007A
:101A1000053004020318102D90310435343E820045
:101A20002100CA01CA0A08009331FD2308002000E2
:101A30003908AC003A08AD00AE01AF013B08A00088
:101A40003C08A100A201A3010030A7000030A600BD
:101A50000030A5006430A40097316D278D3120003F
:101A60002308B3002208B2002108B1002008B0000A
:101A70008731A9278D3120002F08C2002E08C10010
:101A80002D08C0002C08BF000030AF000030AE00B1
:101A90000030AD006430AC004208A3004108A20051
:101AA0004008A1003F08A0003D08A4003E08A50092
:101AB000A601A70197316D278D3120002308B300BF
:101AC0002208B2002108B1002008B0008731A92700
:101AD00020002D08BA01BA072C08B901B90708007F
:101AE0002000690886008701010CEB00EB0C6B0CF1
:101AF0001F39EC006C08ED002100B201B301C501F3
:101B00002000ED08031D9F2D6A08113A031D8E2D3C
:101B1000C8302100AE000030AF00080020006A0885
:101B2000103A031D962D92317F22080022002D08C5
:101B30000319080002309231C5222200080020005B
:101B40006D08013A031DC12D6A08113A031DAF2D1E
:101B5000C8302100AE000030AF0022000800200095
:101B60006A08103A031DB82D923131222200080074
:101B700022002D080319080002309331232322008C
:101B8000080020006D08023A0319C82D2200080041
:101B90006A08113A031DD32D2C302100AE0001300C
:101BA000AF002200080020006A08103A0319DA2D5D
:101BB000220008009231F9228D319431462422000E
:101BC00008002000CF004F08803ECB001F300318D4
:101BD0002030CC004B08E039FF3A013E4B07A8000B
:101BE0002808D0002B30A0000030A1002030A80031
:101BF0002808A2004F089631E6268D3120004F08B4
:101C0000883100208D31213020002702031C0C2E4A
:101C10005003FF3A203E192E5003FF3A203EA80001
:101C20002808CD0027084D020318182E4D08192E3C
:101C30002708A8002808CE002608A8002808A00029
:101C40004E08A900AA012908A1002A08A2005008EC
:101C50002B3E9631BC268D3120302000A80028086C
:101C6000F4002B30A9002908F5004F088C317624A8
:101C70008D3120302000A8002808CF072708500702
:101C8000A800A901A90D2908803AFF0080307F0231
:101C9000031D4C2E20302802031C08002000D00118
:101CA0004E08A8002808A6074E08A702F22D220019
:101CB0008E168E1E5E2E22000D17602E22000D1332
:101CC0000D1F652E22000E15672E22000E110E1D0F
:101CD0006C2E22008E146E2E22008E108E1C732EFF
:101CE00022000E14752E22000E1021003E0803194A
:101CF0008B2E0130F0007008C3077E304302031CB6
:101D00008D2EC3014208003A003003190130F00063
:101D10007008C2008D2EC301C201B808031D9D2E9C
:101D2000420803199D2E4C08F0007008F1003E088F
:101D3000F0007008F1047108A32E21003808CC3E91
:101D400086008701010822008C002100B808031DCD
:101D5000AC2E22000E10C62E21003808013A031DB9
:101D6000B42E22008E10C62E21003808023A031D20
:101D7000BC2E22000E11C62E21003808033A031D86
:101D8000C42E22000D13C62E22008E120130F00048
:101D900070082100B80705303802031C0800B8019C
:101DA000080088312B208E31362FE3302000AC0024
:101DB0008630AD00210029082000AF01AF072100C7
:101DC00028082000AE01AE074130823177228E31E3
:101DD000412F210021082000CA01CA072100200844
:101DE0002000C901C907E330AC008630AD004A08C5
:101DF000AF01AF074908AE01AE074130823177220B
:101E00008E310030220026026530031925020318A6
:101E1000412F003020004A020A30031949020318FA
:101E2000152F3030BF003F08C3002E30BF003F08E1
:101E3000A6000330C0004008A70041308831CA2006
:101E40008E31412FE3302000AC008630AD00210000
:101E500025082000AF01AF07210024082000AE01B3
:101E6000AE074130823177228E31412F7908003A16
:101E70000319D52E013A0319E92E033A0319222F2B
:101E8000412F41302000A0000030A100A201A20A91
:101E90008A313022080078080F390038031D6C2F72
:101EA000E430860000308700403084000030850038
:101EB0000A30FF0016001A00FF0B5A2F7935403EFA
:101EC00086008701403F2000A000413FA100A20101
:101ED000A20A8A313022080078080F392000BF009A
:101EE00003303F02031CE22FF62F97302000AC0096
:101EF0008630AD007708AF01AF077608AE01AE07B8
:101F00004A30823177228F31F401F40A4A3093311A
:101F1000D2238F31EC2FDE302000AC008630AD00B4
:101F20007708AF01AF077608AE01AE074A308231BD
:101F300077228F31F4014A309331D2238F31EC2F45
:101F400097302000AC008630AD007708AF01AF07B6
:101F50007608AE01AE074A30823177228F31F40124
:101F6000F40A4A309331D2238F31EC2F973020007E
:101F7000AC008630AD007708AF01AF077608AE0140
:101F8000AE074A30823177228F31F401F40A4A30A9
:101F90009331D2238F31EC2F97302000AC00863064
:101FA000AD007708AF01AF077608AE01AE074A3043
:101FB000823177228F31F401F40A4A309331D223EF
:101FC0008F31EC2F79088400053004020318EC2FC0
:101FD000903104352A3E82004A302000A0000030B3
:101FE000A100A201A20A8A3130220800913020000B
:101FF000A0008630A100A201A20A8A313022080086
:102000008331FC2B8431122C84312B2C8431512CC4
:102010008431672C84317D2C8431A32C8131D729E4
:102020008131E8298131F7298231072A8231182A42
:102030008231292A82313A2A8B31DC2B8B31E42BF5
:102040008B31ED2B8B31F32B8B31FB2B8C31032C14
:102050008C310C2C8F31752F8F318B2F8F31A02F1E
:102060008F31B62F8F31CC2F8C31EB2C8C31F12C62
:102070008C31F72C8C31F82C8C31FE2C85315A2D7B
:1020800085316B2D85317C2D85318D2D85319E2DB2
:102090009431DC2C9431E42C9431E72C9431EA2CEB
:0420A0009431ED2C5E
:1023F600C030F40074088B0408008B3143239231FB
:102406008B318F2308009231002292318631E726E4
:102416000800FF30F40074082100CC000800781290
:102426002100BD01CA01CA0A0800770876040030F7
:10243600031D01300800FE0012001E00FE0B1F2ABD
:102446000034640080010131890B252A0034F5002F
:102456007508F40074082100EE0008002200AD01A2
:10246600AD0A2100CA01CA0A08007808F039033803
:10247600F8002100BB01BD01080096311C269231EF
:102486002100490881310021080021004108031973
:102496004E2A01300800003008009231892292311C
:1024A60021008D1408308931B42108002200AD08BE
:1024B600031D08002E08F4007408F9000800EF3028
:1024C6002000D30053082100D4059231DF220800F2
:1024D60022008E130E172100C014FE30F40074087B
:1024E600C005080022000E138E1721004014FD308F
:1024F600F4007408C00508002200AD017908F40054
:102506007408AE002100CA01CA0A080021000D1590
:102516008D1509308931B42192310A308931B421BF
:1025260008002100C101C401C601B601B701C701F7
:1025360022008D120D120800A23486349D34863492
:10254600BB348634B6348634CA3486341334FF3406
:1025560020302000A0000130A1002130F5007508D0
:10256600A20000309631E626080022008E130E13D4
:10257600FD30F40074082100C005FE30F400740834
:10258600C0050800F5000130F4007408F907790861
:102596007502031CF9012100CA01CA0A08002000BD
:1025A60022089331752320002108F701F707200838
:1025B600F601F607F812080020302000D100510875
:1025C600A6002130D2005208A70000308D31E12547
:1025D60008009431142492312100CA080319080016
:1025E6004808813100212100CA010800EF30F400BB
:1025F60074082100D605EF30F4007408D405EF30D6
:10260600F4007408D20508002100BC08031908006C
:102616000130F4007408BB073B083C02031CBB01F5
:1026260078160800F500F4013A3075020318212BDC
:1026360030307502031C212BF401F40A740C0800D7
:10264600F500F908031D2C2B7508F4007408F90031
:102656002E2B0130F9022100CA01CA0A08000130F6
:10266600F40074082100BD07C8303D02031C0800B1
:10267600923112227808F0390138F800080020005B
:102686009801F83097002F309600FE30F000700861
:1026960091052100111420009901213098000800AD
:1026A60020009801F83097002F309600FE30F40095
:1026B6007408910521001114200099012130980019
:1026C60008002100411C6A2B22008D166C2B22006B
:1026D6008D122100C11C722B22000D16080022004B
:1026E6000D120800F5007508FF3EF400740821007D
:1026F600BC00BB0178127808F0390138F800BD013A
:10270600CA01CA0A080078302100990023008E0108
:102716008D018C01210090018E018D018C0122001A
:102726008D120D128E130E130800F5007508860023
:102736008701010CF400F40C740C1F3921006F069C
:10274600031D0800FF30F4007408EF000800933101
:10275600862393319231AB22933192319422933175
:102766009231502293318A31B42293319131FB2137
:102776002100BF0108009431FC2493312000A00001
:102786002008A1009531AC2593312000A000200837
:10279600A1042108031D08002100C6010800F50058
:1027A600781E080020302000A00021003B03FF3ADD
:1027B6003C07740775072000A100210886008701E1
:1027C60020088100080021008C010E108E100E11C9
:1027D6000D138E12933153239331FF302000A00046
:1027E6000030A1000530A2000030A300CC309431A7
:1027F6007F2408000130F40074082100BD07323040
:102806003D02031C08000030781E0130F400F40E6F
:1028160078087406EF397406F800BD01CA01CA0AC1
:1028260008002100401C192CCC111A2CCC15C01CF8
:102836001E2C4C121F2C4C16923148229431003A11
:102846000319282C2100CC1208002100CC16080000
:1028560011302000A00020082100C8000F30200001
:10286600A00020082100C9000D3092312A2294319F
:102876002100B401B501F901F030F805CA01CA0A10
:1028860092310C2208000B302000A0002008210005
:10289600C80009302000A00020082100C900073028
:1028A60092312A2294312100B401B501F90154165E
:1028B600F030F805CA01CA0A92310C220800053028
:1028C6002000A00020082100C80003302000A0003E
:1028D60020082100C900013092312A2294312100BA
:1028E600C501B201B301F901561654165216CA01B2
:1028F600CA0A9231592208002000A4002408F400D4
:102906007408A5000130A2020030A33BFF30230665
:10291600031D8F2CFF302206031908002008F4003F
:10292600250886008701740881000130F4007408C8
:10293600A507852CF401F5012000201CA62C2208F1
:10294600F4072308F53D0130A235A30D890BA72C0A
:102956000130A136A00C890BAC2C21082004031DE4
:102966009F2C7508A101A1077408A001A007080003
:10297600813022009700171FBE2CD33021009E0005
:1029860021309D0007302000A000A00BC82CCB2CC6
:1029960021009D149D18CD2C03301C052000A0009D
:1029A6002008F501F50721001B08F401F4070800CB
:1029B600F02C77082200BC01BC077608BB01BB07D8
:1029C600FA2C9731CE27080096316A2608009631F0
:1029D600932608008531C52508007908840005304E
:1029E60004020318FA2C90310435483E8200013067
:1029F60008002200280821002902031D062D2200B6
:102A060027082100280203180B2D4110003008006A
:102A16000130F4007408C6074608F400F5012200E8
:102A260030087502031D192D2F087402031C1D2D75
:102A36002100411401300800770820002302031DFD
:102A4600262D760822020318302D2308F701F707F2
:102A56002208F601F6070030080021087702031D58
:102A6600362D200876020318402D2108F701F707B6
:102A76002008F601F60700300800013008002000A3
:102A8600EF0021006E080319080020006F0A860077
:102A9600870101086E051F39031D532D210008000B
:102AA6006F082100DC005C082000E9006E082100A8
:102AB600DD005D082000EA0021006E08813100215A
:102AC600210008000B3021003502B830031934020A
:102AD600031C732D92316222953194316224953113
:102AE60001302100B4070030B53D78080F39003AAF
:102AF6000319080078080F39033A031D852D933111
:102B0600322308009331FD2308009331AA2395311F
:102B16000A3021004B02031C952DCB01893102217D
:102B260095319B2D01302200D70057082100CB0795
:102B36009231402295319231EC2295313430220087
:102B4600D800F130D700D70BA62DD80BA62DAB2D6C
:102B56008B2D2100290822002A02031DB62D2100F3
:102B66002808220029020318BC2D2100C1100030BC
:102B760008000130F40074082100C6074608F40076
:102B8600F501220030087502031DCB2D2F087402B3
:102B9600031CCF2D2100C114013008002000A40021
:102BA6002408A0002008A5002508860087018108C2
:102BB6000319E22D0130A0002008A507D72D24080F
:102BC600A0000030A100A009A109A00A0319A10ACA
:102BD6002508A2000030A30020082207F4002108DF
:102BE600233DF500080021002D0820002102031DC9
:102BF600002E21002C0820002002031C072E210095
:102C0600B9019231B82208002200240821003902B5
:102C1600031C162E3A080319132E92316B22080054
:102C26009231752208000130F50075082100B907B8
:102C36000800003020008D1F01302200D600560803
:102C46002100E200D53080314C2096310030200042
:102C56008E1D01302200D60056082100E200D33036
:102C660080314C209631003020000E1E01302200AB
:102C7600D60056082100E200D13080314C200800F1
:102C860022002D0803195B2E013021003302F43097
:102C960003193202031C552EB201B30102309231E0
:102CA600C522963101302100B2070030B33D220023
:102CB600643021004502031C632ECA01CA0AC501FD
:102CC60001302000A00020082100C5070800770871
:102CD6002000BA01BA077608B901B9072100310800
:102CE6002000BC01BC07210030082000BB01BB0747
:102CF600220040082000BE01BE0722003F08200037
:102D0600BD01BD078D31172520003A082200C001FC
:102D1600C007200039082200BF01BF0701300800A4
:102D260077082000BA01BA077608B901B907210069
:102D360031082000BC01BC07210030082000BB017F
:102D4600BB0722003E082000BE01BE0722003D0848
:102D56002000BD01BD078D31172520003A0822004D
:102D6600BE01BE07200039082200BD01BD070130A3
:102D760008002000A3002008F4007408A50023081A
:102D8600F4007408A4000130A1020030A23BFF3019
:102D96002206031DD02EFF30210603190800250840
:102DA6008600013087000108F400240886008701A8
:102DB600740881000130F4007408A5070130F4009E
:102DC6007408A407C62E2000A3002308803EA40092
:102DD6001F3003182030A500A20803190800240894
:102DE60023009100200025082300920015131514D6
:102DF6000000000023001308F400200020088600CD
:102E060021088700740881000130A0070030A13D29
:102E16000130A2020130A4070030A53DEF2E2000AC
:102E2600A100823022009700171F172FD3302100F0
:102E36009E0020002108A0000130A035FF3E031DA2
:102E4600202F2035013821009D0007302000A000EA
:102E5600A00B2B2F2E2F21009D149D18302F0330F1
:102E66001C052000A0002008F501F50721001B081D
:102E7600F401F40708002000280827040319662F28
:102E8600AB01AB0AA81B512F0130A735A80D890B42
:102E9600482F0130F5007508AB07452F28082A0290
:102EA600031D572F27082902031C5D2F2708A90297
:102EB6002808AA3B0130A836A70C890B5E2F0130E3
:102EC600AB02031D512F2A08A801A8072908A7014C
:102ED600A707080000302000AB000030AA00003031
:102EE600A9000030A800201C802F2408A807250868
:102EF600A93D2608AA3D2708AB3D0130A435A50DFE
:102F0600A60DA70D890B812F0130A336A20CA10CAB
:102F1600A00C890B882F2308220421042004031DFA
:102F2600762F2B08A3002A08A2002908A10028084A
:102F3600A000080079082000A400A501A435A50D6D
:102F4600A435A50D24087407F4002508753DF50081
:102F56007408840075088500003FA800013FA90099
:102F66000230F4070030F53D7408840075088500CA
:102F7600003FA600013FA7002908A101A1072808D4
:102F8600A001A0072708A301A3072608A201A207FC
:102F960095311F25080001307702F53003197602B6
:102FA600031CD72F0030080077082000BA01BA07A3
:102FB6007608B901B907210031082000BC01BC0719
:102FC600210030082000BB01BB0722003808200082
:102FD600BE01BE07220037082000BD01BD078D31A6
:102FE600172520003A082200B801B8072000390842
:0A2FF6002200B701B7070130080000
:103F0000E6340034033400341E34F4340134FA341B
:103F10000034D23400349B34003401340034003493
:103F20000034003400345A3400340A340034E834A5
:103F30000334E834033400340034243401342434AA
:023F400001344A
:020000040001F9
:04000E0024CFFDF707
:00000001FF
